:10000000706A0020B57100005F080200A171000055
:10001000A1710000A1710000A171000000000000AA
:10002000000000000000000000000000A9720000B5
:10003000A17100000000000051720000A1710000D9
:100040006D7400006D7400006D7400006D7400002C
:100050006D7400006D7400006D7400006D7400001C
:100060006D7400006D7400006D7400006D7400000C
:100070006D7400006D7400006D7400006D740000FC
:100080006D7400006D7400006D7400006D740000EC
:100090006D7400006D7400006D7400006D740000DC
:1000A0006D7400006D7400006D7400006D740000CC
:1000B0006D7400006D7400006D7400006D740000BC
:1000C0006D7400006D7400006D7400006D740000AC
:1000D0006D7400006D7400006D7400006D7400009C
:1000E0006D7400006D7400006D7400006D7400008C
:1000F0006D7400006D7400006D7400006D7400007C
:1001000090F800F06DE9024520F007016FF0000C57
:1001100010F0070491F820F040F049804FF00004FF
:100120006FF00700D1E9002391F840F000F10800DA
:1001300082FA4CF2A4FA8CF283FA4CF3A2FA8CF312
:100140004BBBD1E9022382FA4CF200F10800A4FA79
:100150008CF283FA4CF3A2FA8CF3E3B9D1E90423CD
:1001600082FA4CF200F10800A4FA8CF283FA4CF304
:10017000A2FA8CF37BB9D1E9062301F1200182FABE
:100180004CF200F10800A4FA8CF283FA4CF3A2FAC4
:100190008CF3002BC6D0002A04BF04301A4612BAD2
:1001A000B2FA82F2FDE8024500EBD2007047D1E9D5
:1001B000002304F00305C4F100004FEAC50514F064
:1001C000040F91F840F00CFA05F562EA05021CBF35
:1001D00063EA050362464FF00004A9E7000000004F
:1001E000A2EB0300704700BF02780B78012A28BFFA
:1001F0009A42F5D16DE9044540EA0104CDE9026770
:100200006FF0000C4FEA447212B380EA010414F05C
:10021000070F6AD100F0070420F0070004F003057F
:1002200021F007014FEAC505F0E8042314F0040F9C
:10023000F1E804670CFA05F462EA040266EA0406CF
:100240000AD063EA0403624667EA0407664603E0ED
:10025000F0E80423F1E8046782FA4CF582EA060428
:10026000A4FA8CF46CBB83FA4CF583EA0705A5FA73
:100270008CF595B950E9022351E9026782FA4CF5F1
:1002800082EA0604A4FA8CF483FA4CF583EA0705A3
:10029000A5FA8CF52543DBD09CB92DBAB5FA85F4C7
:1002A00024F0070427FA04F1DDE9026723FA04F3D6
:1002B00003F0FF0001F0FF01FDE80445A0EB0100A1
:1002C000704724BAB4FA84F424F0070426FA04F13F
:1002D000DDE9026722FA04F202F0FF0001F0FF01FB
:1002E000FDE80445A0EB0100704714F0030F3CD17A
:1002F00010F0030428D150F8082B51F8083B82FA7B
:100300004CF582EA0305A5FA8CF55DB950F8042C8A
:1003100051F8043C82FA4CF582EA0305A5FA8CF503
:10032000002DE8D02DBAB5FA85F424F0070423FA9D
:1003300004F122FA04F202F0FF0001F0FF01FDE8EF
:100340000445A0EB010070474FEAC40420F003000D
:1003500050F8082B21F0030151F8083B0CFA04F483
:1003600062EA040263EA0403C9E710F003041AD046
:10037000A1EB040120F00300E40750F8042B06D0A1
:100380000FD28B785FFAA2F4E41A06D12BB1CB78A6
:100390005FFAB2F4E41A00D11BB920465DF8104BA5
:1003A000704701F1040150F8042BCC0721F0030140
:1003B00051F8043B48D824D222F07F4482FA4CF50D
:1003C00094EA1325A5FA8CF50AD165B951F8043BD6
:1003D00084EA0204B4EB036F0ED150F8042BEBE770
:1003E0004FEA132355E035F07F454DD10878FDE8FD
:1003F0000445C0F1000070474FEA126203F0FF03AA
:1004000047E002EA1C4482FA4CF594EA1345A5FA47
:100410008CF50AD165B951F8043B84EA0204B4EBC7
:10042000034F0CD150F8042BEBE74FEA134330E0B5
:1004300015EA1C4528D10B884FEA124229E04FEA01
:10044000124203EA1C4324E002F0FF0482FA4CF556
:1004500094EA1365A5FA8CF50AD165B951F8043B05
:1004600084EA0204B4EB032F09D150F8042BEBE724
:100470004FEA13630DE015F0FF0F05D10B684FEA4B
:10048000122223F07F4304E04FF00000FDE8044512
:10049000704712BA1BBA82FA4CF482EA0304A4FA37
:1004A0008CF5B5FA85F402FA04F203FA04F34FEA84
:1004B0001260FDE80445A0EB1360704700000000E7
:1004C00001F0FF01102A2BDB10F0070F08D010F805
:1004D000013B013A8B422DD010F0070F42B3F6D109
:1004E000F0B441EA012141EA014122F007047FF022
:1004F00000070023F0E80256083C85EA010586EA79
:10050000010685FA47F5A3FA87F586FA47F6A5FAB4
:1005100087F68EB9EED1F0BC01F0FF0102F00702C0
:1005200032B110F8013B013A83EA010313B1F8D16B
:100530000020704701387047002D06BF354603384C
:10054000073815F0010F07D1013015F4807F02BF85
:10055000013015F4C03F0130F0BC0138704700BFD6
:10056000844641EA000313F003036DD1403A41D3BE
:1005700051F8043B40F8043B51F8043B40F8043B7D
:1005800051F8043B40F8043B51F8043B40F8043B6D
:1005900051F8043B40F8043B51F8043B40F8043B5D
:1005A00051F8043B40F8043B51F8043B40F8043B4D
:1005B00051F8043B40F8043B51F8043B40F8043B3D
:1005C00051F8043B40F8043B51F8043B40F8043B2D
:1005D00051F8043B40F8043B51F8043B40F8043B1D
:1005E00051F8043B40F8043B51F8043B40F8043B0D
:1005F000403ABDD2303211D351F8043B40F8043BAD
:1006000051F8043B40F8043B51F8043B40F8043BEC
:1006100051F8043B40F8043B103AEDD20C3205D3BC
:1006200051F8043B40F8043B043AF9D2043208D0B4
:10063000D2071CBF11F8013B00F8013B01D30B8826
:1006400003806046704700BF082A13D38B078DD004
:1006500010F003038AD0C3F10403D21ADB071CBFD6
:1006600011F8013B00F8013B80D331F8023B20F840
:10067000023B7BE7043AD9D3013A11F8013B00F879
:10068000013BF9D20B7803704B7843708B78837001
:100690006046704781F0004102E000BF83F00043F4
:1006A00030B54FEA41044FEA430594EA050F08BF0D
:1006B00090EA020F1FBF54EA000C55EA020C7FEAD1
:1006C000645C7FEA655C00F0E2804FEA5454D4EB4E
:1006D0005555B8BF6D420CDD2C4480EA020281EA18
:1006E000030382EA000083EA010180EA020281EA50
:1006F0000303362D88BF30BD11F0004F4FEA0131A2
:100700004FF4801C4CEA113102D0404261EB4101B0
:1007100013F0004F4FEA03334CEA133302D0524236
:1007200063EB430394EA050F00F0A780A4F10104F2
:10073000D5F1200E0DDB02FA0EFC22FA05F280182C
:1007400041F1000103FA0EF2801843FA05F3594112
:100750000EE0A5F120050EF1200E012A03FA0EFC91
:1007600028BF4CF0020C43FA05F3C01851EBE371BB
:1007700001F0004507D54FF0000EDCF1000C7EEBD8
:1007800000006EEB0101B1F5801F1BD3B1F5001F16
:100790000CD349085FEA30004FEA3C0C04F1010435
:1007A0004FEA445212F5800F80F09A80BCF1004F5E
:1007B00008BF5FEA500C50F1000041EB045141EAE0
:1007C000050130BD5FEA4C0C404141EB0101013CA9
:1007D00028BFB1F5801FE9D291F0000F04BF014698
:1007E0000020B1FA81F308BF2033A3F10B03B3F16A
:1007F00020020CDA0C3208DD02F1140CC2F10C02FA
:1008000001FA0CF021FA02F10CE002F11402D8BF57
:10081000C2F1200C01FA02F120FA0CFCDCBF41EA23
:100820000C019040E41AA2BF01EB0451294330BDF2
:100830006FEA04041F3C1CDA0C340EDC04F11404CF
:10084000C4F1200220FA04F001FA02F340EA0300A6
:1008500021FA04F345EA030130BDC4F10C04C4F1EC
:10086000200220FA02F001FA04F340EA03002946CC
:1008700030BD21FA04F0294630BD94F0000F83F416
:10088000801306BF81F480110134013D4EE77FEAF9
:10089000645C18BF7FEA655C29D094EA050F08BF45
:1008A00090EA020F05D054EA000C04BF1946104626
:1008B00030BD91EA030F1EBF0021002030BD5FEA6A
:1008C000545C05D14000494128BF41F0004130BD92
:1008D00014F580043CBF01F5801130BD01F00045E6
:1008E00045F0FE4141F470014FF0000030BD7FEA59
:1008F000645C1ABF194610467FEA655C1CBF0B4654
:10090000024650EA013406BF52EA033591EA030F6A
:1009100041F4002130BD00BF90F0000F04BF002162
:10092000704730B54FF4806404F132044FF0000595
:100930004FF0000150E700BF90F0000F04BF00210E
:10094000704730B54FF4806404F1320410F0004574
:1009500048BF40424FF000013EE700BF42004FEA6F
:10096000E2014FEA31014FEA02701FBF12F07F43EC
:1009700093F07F4F81F06051704732F07F4208BFA3
:10098000704793F07F4F04BF41F40021704730B5AA
:100990004FF4607401F0004521F000411CE700BFF6
:1009A00050EA010208BF704730B54FF000050AE079
:1009B00050EA010208BF704730B511F0004502D57A
:1009C000404261EB41014FF4806404F132045FEA7C
:1009D000915C3FF4D8AE4FF003025FEADC0C18BF25
:1009E00003325FEADC0C18BF033202EBDC02C2F117
:1009F000200300FA03FC20FA02F001FA03FE40EAA9
:100A00000E0021FA02F11444BDE600BF70B54FF0AC
:100A1000FF0C4CF4E06C1CEA11541DBF1CEA13558A
:100A200094EA0C0F95EA0C0F00F0DEF82C4481EAF2
:100A3000030621EA4C5123EA4C5350EA013518BF12
:100A400052EA033541F4801143F4801338D0A0FBFF
:100A500002CE4FF00005E1FB02E506F00042E0FBAC
:100A600003E54FF00006E1FB03569CF0000F18BFB2
:100A70004EF0010EA4F1FF04B6F5007F64F540745A
:100A800004D25FEA4E0E6D4146EB060642EAC621ED
:100A900041EA55514FEAC52040EA5E504FEACE2E5A
:100AA000B4F1FD0C88BFBCF5E06F1ED8BEF1004F5D
:100AB00008BF5FEA500E50F1000041EB045170BDD9
:100AC00006F0004646EA010140EA020081EA03011D
:100AD000B4EB5C04C2BFD4EB0C0541EA045170BD19
:100AE00041F480114FF0000E013C00F3AB8014F193
:100AF000360FDEBF002001F0004170BDC4F10004DC
:100B0000203C35DA0C341BDC04F11404C4F120055C
:100B100000FA05F320FA04F001FA05F240EA0200B7
:100B200001F0004221F0004110EBD37021FA04F6ED
:100B300042EB06015EEA430E08BF20EAD37070BDA7
:100B4000C4F10C04C4F1200500FA04F320FA05F006
:100B500001FA04F240EA020001F0004110EBD37008
:100B600041F100015EEA430E08BF20EAD37070BD78
:100B7000C4F1200500FA05F24EEA020E20FA04F351
:100B800001FA05F243EA020321FA04F001F0004100
:100B900021FA04F220EA020000EBD3705EEA430E71
:100BA00008BF20EAD37070BD94F0000F0FD101F0A0
:100BB0000046400041EB010111F4801F08BF013CD9
:100BC000F7D041EA060195F0000F18BF704703F017
:100BD0000046520043EB030313F4801F08BF013D9E
:100BE000F7D043EA0603704794EA0C0F0CEA13555A
:100BF00018BF95EA0C0F0CD050EA410618BF52EA14
:100C00004306D1D181EA030101F000414FF0000019
:100C100070BD50EA410606BF1046194652EA430627
:100C200019D094EA0C0F02D150EA013613D195EA9B
:100C30000C0F05D152EA03361CBF104619460AD1E3
:100C400081EA030101F0004141F0FE4141F47001ED
:100C50004FF0000070BD41F0FE4141F4780170BDDD
:100C600070B54FF0FF0C4CF4E06C1CEA11541DBF42
:100C70001CEA135594EA0C0F95EA0C0F00F0A7F844
:100C8000A4EB050481EA030E52EA03354FEA013171
:100C900000F088804FEA03334FF0805545EA131384
:100CA00043EA12634FEA022245EA111545EA10654C
:100CB0004FEA00260EF000419D4208BF964244F1E3
:100CC000FD0404F5407402D25B084FEA3202B61A02
:100CD00065EB03055B084FEA32024FF480104FF4D6
:100CE000002CB6EB020E75EB030E22BFB61A75464A
:100CF00040EA0C005B084FEA3202B6EB020E75EBDD
:100D0000030E22BFB61A754640EA5C005B084FEA44
:100D10003202B6EB020E75EB030E22BFB61A754611
:100D200040EA9C005B084FEA3202B6EB020E75EB1C
:100D3000030E22BFB61A754640EADC0055EA060EDD
:100D400018D04FEA051545EA16754FEA06164FEA20
:100D5000C30343EA52734FEAC2025FEA1C1CC0D1CC
:100D600011F4801F0BD141EA00014FF000004FF059
:100D7000004CB6E711F4801F04BF01430020B4F11A
:100D8000FD0C88BFBCF5E06F3FF6AFAEB5EB030CD2
:100D900004BFB6EB020C5FEA500C50F1000041EBCF
:100DA000045170BD0EF0004E4EEA113114EB5C049C
:100DB000C2BFD4EB0C0541EA045170BD41F480116F
:100DC0004FF0000E013C90E645EA060E8DE60CEA77
:100DD000135594EA0C0F08BF95EA0C0F3FF43BAF94
:100DE00094EA0C0F0AD150EA01347FF434AF95EA4B
:100DF0000C0F7FF425AF104619462CE795EA0C0F2F
:100E000006D152EA03353FF4FDAE1046194622E7FB
:100E100050EA410618BF52EA43067FF4C5AE50EAD5
:100E200041047FF40DAF52EA43057FF4EBAE12E7C5
:100E30004FF0FF3C06E000BF4FF0010C02E000BFA6
:100E40004FF0010C4DF804CD4FEA410C7FEA6C5C89
:100E50004FEA430C18BF7FEA6C5C1BD001B050EA2C
:100E6000410C0CBF52EA430C91EA030F02BF90EA17
:100E7000020F0020704710F1000F91EA030F58BFD6
:100E8000994208BF90422CBFD8176FEAE37040F038
:100E9000010070474FEA410C7FEA6C5C02D150EAD6
:100EA000013C07D14FEA430C7FEA6C5CD6D152EA91
:100EB000033CD3D05DF8040B704700BF8446104656
:100EC00062468C461946634600E000BF01B5FFF755
:100ED000B7FF002848BF10F1000F01BD4DF808ED25
:100EE000FFF7F4FF0CBF012000205DF808FB00BFF6
:100EF0004DF808EDFFF7EAFF34BF012000205DF850
:100F000008FB00BF4DF808EDFFF7E0FF94BF01209C
:100F100000205DF808FB00BF4DF808EDFFF7CEFF9D
:100F200094BF012000205DF808FB00BF4DF808EDDC
:100F3000FFF7C4FF34BF012000205DF808FB00BFAD
:100F40004FEA410C7FEA6C5C02D150EA013C0AD1C5
:100F50004FEA430C7FEA6C5C02D152EA033C02D1B7
:100F60004FF0000070474FF0010070474FEA410218
:100F700012F5001215D211D56FF47873B3EB6252EB
:100F800012D94FEAC12343F0004343EA505311F012
:100F9000004F23FA02F018BF404270474FF00000A4
:100FA000704750EA013005D111F0004008BF6FF0E2
:100FB000004070474FF00000704700BF7BB972B926
:100FC0000029BEBF00204FF0004106E008BF002806
:100FD0001CBF6FF000414FF0FF3000F057B8ADF18B
:100FE000080C6DE904CE002909DB002B1ADB00F0A8
:100FF0004FF8DDF804E0DDE9022304B07047404219
:1010000061EB4101002B1BDB00F042F8DDF804E04E
:10101000DDE9022304B0404261EB4101524263EB3F
:1010200043037047524263EB430300F031F8DDF8AD
:1010300004E0DDE9022304B0404261EB4101704766
:10104000524263EB430300F023F8DDF804E0DDE9EE
:10105000022304B0524263EB4303704753B94AB9C9
:10106000002908BF00281CBF4FF0FF314FF0FF30B0
:1010700000F00CB8ADF1080C6DE904CE00F008F8F2
:10108000DDF804E0DDE9022304B07047704700BFDB
:101090002DE9F04786468C460846089E154674465C
:1010A0001946002B40F0C2808542B2FA82F245D93F
:1010B0004AB1C2F1200300FA02FC2EFA03F3954074
:1010C00043EA0C0C94404FEA154EA8B2BCFBFEF864
:1010D000230C0EFB18CC08FB00F943EA0C4399459E
:1010E00028D9EB1808F1FF3704D2994502D9A8F1A5
:1010F00002072B44A3EB0903A4B2B3FBFEFC0EFBD7
:101100001C330CFB00F044EA0344A04214D92C1910
:101110000CF1FF3304D2A04202D9ACF102032C44FB
:10112000241A43EA07401EB1D440002334607360A0
:10113000BDE8F0874746DDE76346F1E792BB431B16
:1011400001214FEA154EAFB2B3FBFEFC200C0EFBA3
:101150001C330CFB07F840EA0343984562D9EB18AF
:101160000CF1FF3004D2984502D9ACF102002B44B7
:10117000A3EB0803A4B2B3FBFEFC0EFB1C330CFB79
:1011800007F744EA0344A7424ED92C190CF1FF3368
:1011900004D2A74202D9ACF102032C44E41B43EA77
:1011A0000040C0E7C2F1200320FA03F195409040CF
:1011B0002EFA03F303434FEA154EAFB2B1FBFEFC28
:1011C0000EFB1C10190C0CFB07F841EA0041884586
:1011D00004FA02F422D969180CF1FF3004D28845D0
:1011E00002D9ACF102002944A1EB08019BB2B1FB8A
:1011F000FEFC0EFB1C110CFB07F743EA01439F4268
:101200000ED9EB180CF1FF3104D29F4202D9ACF198
:1012100002012B44DB1B41EA004192E76046E3E711
:101220006146F7E76046A3E76346B7E7834206D91E
:1012300016B9002108467BE7C6E900E0F9E7B3FAF2
:1012400083F78FB9834201D3724508D8BEEB0204FD
:1012500060EB030301209C461EB9002168E7384675
:10126000FAE7C6E9004CF8E7C7F1200CBB4022FAC8
:101270000CF41C432EFA0CF120FA0CF3B840014395
:101280004FEA14490EFA07F5B3FBF9F81FFA84FE8A
:1012900009FB18300B0C08FB0EFA43EA00439A4591
:1012A00002FA07F240D9E31808F1FF3004D29A4558
:1012B00002D9A8F102002344A3EB0A0389B2B3FBCD
:1012C000F9F809FB183308FB0EFE41EA03418E458D
:1012D0002CD9611808F1FF3304D28E4502D9A8F148
:1012E0000203214443EA0040A0FB0298A1EB0E0157
:1012F0004145CE46434602D306D14D4504D2B9EB13
:10130000020E68EB04030138002EA6D0B5EB0E02E6
:1013100061EB030101FA0CFC22FA07F34CEA030328
:10132000F940C6E9003198E74046C5E74346D9E7AA
:101330002DE9F047064688B00F46904625F002F8A2
:101340004FF47A73A0FB034503FB0155E40B012F17
:1013500044EA45444FEAD53507D1294922462B4670
:1013600030461EF0B6FB002012E0D8F80470254885
:101370003946FEF739FF70B123483946FEF734FF8E
:1013800048B1304621493A461EF0BFFB6FF00400D9
:1013900008B0BDE8F0872046294617A3D3E900230B
:1013A000FFF70CFE05460C4610461946184A002366
:1013B000FFF704FE80460F46104619464EF660229F
:1013C0000023FFF7FBFD82468946104619464FF47D
:1013D0007A720023FFF7F2FDCDE902A9CDE90623D9
:1013E000CDE90401CDE900870A492A462346304663
:1013F0001EF06FFBB7E700BF005C26050000000091
:10140000A7880200B8880200BB880200C4880200D6
:1014100080EE3600DC8802002DE9F04F016C9FB0B1
:1014200016461F46CDE904672B9D039049B1426CD7
:101430004A600123934004468B601AF065FE002346
:101440002364B7F10009B4BF012300232B60764B5E
:10145000BCBF29F00049CDF8149033EA090300F02D
:10146000AA80DDE904340022184621460023CDE994
:101470000801FFF733FD804668B12A9A0123136003
:101480002C9B13B12C9A694B1360694B0A930A98F1
:101490001FB0BDE8F08F1CAB01931DAB0093039808
:1014A000DDE908231BF064F95FEA1955824640F034
:1014B0009880DDE91C85454405F23243202B40F33A
:1014C0008383C3F1400309FA03F905F2124326FAB4
:1014D00003F349EA0300FFF71FFA0123013DA1F1DD
:1014E000F8711193534B0022FFF7D8F848A3D3E9C2
:1014F0000023FFF78BFA48A3D3E90023FFF7D0F8C6
:10150000064628460F46FFF717FA45A3D3E90023FE
:10151000FFF77CFA02460B4630463946FFF7C0F823
:1015200006460F46FFF722FD002283460023304681
:101530003946FFF7DDFC002840F01A83A8EB0508C8
:10154000BBF1160F08F1FF3400F28B813A4D05EB29
:10155000CB05D5E90023DDE90801FFF7C9FC002828
:1015600070D00023002C0BF1FF3B1093C0F27E8162
:1015700000230B93BBF1000F6ADA0B9BA3EB0B0369
:101580000B93CBF10003CDE90EB3289B092B4FF051
:10159000000B65D8052B40F31C83043B28930025E2
:1015A000289B023B032B00F22386DFE813F0600444
:1015B0005D04540438042A9AC9F3130942F20F73E4
:1015C00059EA060913601CD12C9B002B00F02B86D6
:1015D0001A4B0A9308332C9A0A9813601FB0BDE87F
:1015E000F08FDDE90812C2F31303084643F07F5180
:1015F000CDF84480A5F2FF35DDF8708041F440114C
:1016000070E72C9B002B40F0E7830D4B0A933EE7DD
:1016100061436F63A787D23FB3C8608B288AC63FF8
:10162000FB799F501344D33F0000F07F3D810200BF
:101630003C8102000000F83FC06F020060810200A0
:101640006C810200B8F1000F40F3608410900B90A1
:1016500000230F93289BCDF838B0092B5C4499D90F
:101660000023CDE9283301254FF0FF330C95069375
:10167000039B00215964069B189303981AF01EFDE2
:101680000A90002800F0BD85039B0A9A1A64069B05
:101690000E2B00F21581002D00F012810E9A002A07
:1016A00040F33B84B24D02F00F0305EBC303D3E9D3
:1016B000008913461511DA0540F1FA83AD4BDDE9D7
:1016C0000801D3E90823FFF7CBFACDE9120105F0B1
:1016D0000F0503277DB1A74EEB0708D540464946C5
:1016E000D6E90023FFF792F90137804689466D104D
:1016F00006F10806F0D142464B46DDE91201FFF73C
:10170000AFFA80468946109B43B19B4B002240466E
:101710004946FFF7EDFB002840F0F1843846FFF71B
:101720000BF942464B46FFF771F9944B0022FEF746
:10173000B7FF069B0646A1F15077002B00F0A98069
:101740000E9B1993069B12930A9B894D494640466E
:10175000CDE914675E1CFFF709FC129905EBC10384
:1017600053E902120746CDE91612FFF7E5F80246E3
:101770000B4640464946FEF791FF89460C993037A3
:10178000DDE916238046FFB2002900F053847C492E
:101790000020FFF765FADDE91423FEF77FFF0A9DBD
:1017A00002460B46CDE914232F7042464B46FFF705
:1017B000BDFB002840F09784CDE91AB4CDF858A0BD
:1017C000129DDDE914AB00272AE00137AF4280F219
:1017D000DE846C4B504659460022FFF717F9694BDF
:1017E000002282468B4640464946FFF70FF989465C
:1017F0008046FFF7BBFB0446FFF79EF802460B4608
:1018000040464946FEF74AFF303406F8014B52463F
:101810005B4680468946FFF76BFB002840F0B484A6
:1018200042464B4654490020FEF738FF52465B467D
:10183000FFF75EFB0028C8D0199BDDF858A00A9A74
:10184000374603F1010802E0974200F07C843E46EF
:1018500017F8013D392BF7D00133DBB23B70454619
:1018600075E10123002C1093BFF682AEC8F101038D
:101870000B9300247EE63846FFF75EF842464B465F
:10188000FFF7C4F83D4B0022FEF70AFF0646A1F120
:1018900050773D4B404649460022FEF7FFFE324658
:1018A0003B4680468946FFF741FB002840F05A84BA
:1018B00040464946324607F10043FFF719FB28BB73
:1018C0001D9B002BC0F292800E9A0E2A00F38E8090
:1018D000274D0E9B05EBC305D5E90034CDE9043453
:1018E000299B002B19DA069B002B16DC0ED1264B08
:1018F0000022DDE90401FFF789F802460B46DDE925
:101900000801FFF7FFFA002800F02C844FF00009CF
:101910000A9E4F46299BDD4325E2DDE90445DDE9CA
:10192000088922462B4640464946FFF799F9FFF7BA
:101930001DFB0646FFF700F822462B46FFF766F828
:101940000A9F0B46024649464046FEF7A7FE06F1AF
:10195000300307F8013B069B012B00F012830125A1
:10196000CDF818A09946DDE904ABA8462CE000BFED
:10197000C06F0200986F02000000F03F00001C40A2
:101980000000E03F000024400000144052465B4647
:1019900020462946FFF764F9FFF7E8FA0646FEF706
:1019A000CBFF52465B46FFF731F808F101080B46C2
:1019B000024629462046FEF771FE06F13003C8456F
:1019C00007F8013B00F0DB82B94B0022FFF71EF85D
:1019D0000022002304460D46FFF780FA0028D5D0E8
:1019E0000E9DDDF818A001353E46B0E00C9A002AA5
:1019F00040F0D28000230F9D0B9E0C931F4656B1E2
:101A0000002C08DDA6420B9A3346A8BF2346D21A03
:101A10000B92F61AE41A0F9B53B10C9B13B1002DD5
:101A200040F0E88251460F9A03981AF0FDFC824676
:101A3000039801211AF014FC8146BBF1000F40F01D
:101A4000B681289B012B40F3CC810120204410F06B
:101A50001F0000F09A80C0F12003042B40F3DA81CC
:101A60000B9BC0F11C0003440B93064404440B9BE6
:101A7000002B05DD514603981A461AF02FFD8246C9
:101A8000002C05DD4946039822461AF027FD8146C1
:101A9000109B002B40F07081069B002B40F3488187
:101AA0000C9B002B40F0A4800E9D0135DDF82880B2
:101AB000069CDDF80CB0012607E0514600230A22FF
:101AC00058461AF02BFB01368246494650461AF01A
:101AD0000FF9A64200F1300308F8013BEDDB069A4E
:101AE000002AC8BF16460A9AD8BF012602EB060B89
:101AF000002451460122039804931AF0EFFC494652
:101B000082461AF063FD002840F3E3810A9A02E05E
:101B10005A4500F0E9815E460BF1FF3B16F8013CA7
:101B2000392BF5D001338BF80030DDF80C804946B5
:101B300040461AF0E9FA57B12CB1BC4203D0214615
:101B400040461AF0E1FA039839461AF0DDFA039894
:101B500051461AF0D9FA002333702A9B1D602C9B42
:101B6000002B3FF494AC0A981E601FB0BDE8F08FC4
:101B70005846FEF7E1FE32463B46FFF7AFF9002834
:101B80007FF4DCAC0BF1FF3BD8E41C230B9A1A4426
:101B90000B921E441C446AE7289A012A40F3A9814B
:101BA000069A0F9B551EAB42C0F26B81002AA3EB35
:101BB000050580F2DD820B9B069A9E1A039801218F
:101BC0001AF04EFB07461AE7C3F1200306FA03F0AA
:101BD00081E40125E4E43946002303980A221AF03F
:101BE0009DFA189B002B074640F3EF820E95069353
:101BF000002E00F33F81BBF1000F40F0DF81B846BB
:101C00000A9E069C731E1C44049B0C9403F0010363
:101C1000039C0F93494650461AF06AF839468346AA
:101C200050461AF0D3FC42464946054620461AF073
:101C3000EDFCC26801460BF13003002A3AD108904E
:101C400050460B931AF0C2FC0899069020461AF0F1
:101C50005BFA069A0B9B002A5AD1289A1AB90F9A56
:101C6000002A00F09A82002D45DB0C9AB346B2425E
:101C70000BF8013B00F0B981514600230A222046AF
:101C80001AF04CFA4745824639464FF000034FF0B0
:101C90000A02204636D01AF041FA41460746002390
:101CA0000A2220461AF03AFA5E468046B2E700BFA2
:101CB00000002440039806931AF026FA002D069B94
:101CC00006DB049A289902F001020D432A432AD127
:101CD00051460122039804931AF000FC49468246BB
:101CE0001AF074FC0028049B40F3E880392B00F0C4
:101CF0002F820BF131030E9D06F8013B3C46013566
:101D0000474612E71AF00AFA5E460746804681E720
:101D1000002DC0F27D8228990D430F990D4300F0EC
:101D20007782002AA1DD392B00F012820133E2E72D
:101D3000289B022B7FF7B4AE069B002B40F01D8141
:101D40004946052203981AF0E9F9014681465046B2
:101D50001AF03CFC002840F310810A9E0E9D3123AE
:101D600006F8013B01350398494601351AF0CCF9D4
:101D7000002F7FF4E8AEEAE6494650461AF026FC0A
:101D80000028BFF689AE5146002303980A221AF0B4
:101D9000C5F90E9B5D1E0C9B8246002B7FF41BAF8A
:101DA000189B002B40F3FF810E9D06937EE60146B3
:101DB0005A4603981AF038FB289B012B81466CDDAC
:101DC0004FF0000BD9F8103009EB830318691AF0B3
:101DD000F5F9C0F1200039E6924B0A930333FFF77F
:101DE000FABB049B002B7FF430AEDDE90412C2F392
:101DF0001303002B7FF429AE8B4B134023B10B9BB5
:101E000001330B9301340123BBF1000F40F0AE818D
:101E10009B461AE63FF42BAEC0F13C03B6E6012325
:101E20000C93299B0E9A134418930133012B1E46E1
:101E30000693B8BF0126172E40F3D5810122042353
:101E40005B0003F11400B042114602F10102F7D920
:101E5000039B596411E401230C93299B002B33DD70
:101E6000189306931E46E6E700230C93D9E7002358
:101E70000C93F2E73946039832461AF02FFB0746D7
:101E8000B9E60F9B069A0F95EB1A9B440B9B1E46D7
:101E9000134414440B93002590E6049B002B8FD130
:101EA000DDE90401C1F313030A46002B88D1A3E73F
:101EB000DDE908230227CDE912230BE47FF41BAFF1
:101EC000DA077FF518AF11E7012329930693FFF78F
:101ED000CFBB03D1049BDB073FF518AE5E461BF872
:101EE000013D302BFAD020E60A9A312301351370D8
:101EF0001BE6119A002A00F0F98003F233430B9A93
:101F00000F9D16461A441C440B9257E6C8F1010374
:101F100004460B931090FFF79BBB00F0EB800E9BE9
:101F2000424D5E4206F00F0305EBC303D3E90023E5
:101F3000DDE90801FEF76AFD3511CDE9120100F077
:101F40004D813B4E0023022780468946E80709D58C
:101F5000D6E9002340464946FEF758FD0137804642
:101F6000894601236D1006F10806EFD1002B7FF49E
:101F7000CAABDDE91289FFF7C6BB0A9ECAE4DDF8E9
:101F800018A00E9D02460B46FEF78AFB02460B4642
:101F9000CDE906230135DDE90423A846FEF7C6FF97
:101FA00040B9DDE90423DDE90601FEF797FF18B12A
:101FB000F10701D50A9A4AE43E46C8E579680398D4
:101FC0001AF07CF80546002800F026813B690233B0
:101FD0009A0007F10C010C30FEF7C2FA039829466B
:101FE00001221AF07BFA80460AE60E9D3C46013536
:101FF00047467EE5DDF80C8039462A4640461AF011
:1020000013FA52460146074640461AF057F9514620
:10201000824640461AF078F80F9B5B1B0F933FF403
:1020200007ADFFE46C8102000000F07FC06F02008A
:10203000986F0200DDE91401FEF7E8FC0A9B1F70AF
:10204000129B012BCDE90C0100F0C680129F0A9B68
:10205000CDF844B01F447C4B002240464946FEF771
:10206000D5FC89468046FEF781FF8346FEF764FC77
:102070000BF1300B02460B4640464946FEF70EFB7D
:1020800006F801BBB74280468946E4D1DDF844B08A
:102090006E4B0022DDE90C01FEF702FB02460B4607
:1020A00040464946FEF742FF002867D1DDE90C2390
:1020B00066490020FEF7F2FA02460B4640464946C2
:1020C000FEF716FF48B91D9B002BFFF693AC0E9B45
:1020D0000E2B3FF78FACFFF7FCBB3E46013F16F8D7
:1020E000013C302BF9D0199D013530E51C9BC3F123
:1020F000360304E7DDE908890227FFF704BB069BE6
:10210000002B3FF4B8AB189B002B7FF7D9AB0E9A8E
:102110001293013A4C4B1992404600224946FEF771
:1021200075FC80468946781CFEF706FC42464B4605
:10213000FEF76CFC464B0022FEF7B2FA0646A1F110
:102140005077FFF701BB08F101083123FFF786BB89
:102150000E9D0A9AB34639233C460BF8013B0135E4
:102160004746D8E44FF000094F46F6E59B4629E67E
:102170000B9B1E46134414440B931FE5199B0A9AAC
:1021800003F10108FFF763BBDDF858A0ABE7DDE919
:102190001AB4DDF858A0FFF793BB392BD8D0002D27
:1021A0003FF7A7ADA7E5289B022B0ADC189B0693F7
:1021B00049460E9D19F09CFD0A9A00F130031370F8
:1021C0008DE4189B06930E95B6E5289B022BF8DC50
:1021D000189B0E9506930BE5374659E7DDE9128902
:1021E0000227FFF790BA039B00215964FFF745BA15
:1021F000039B00255D642946184619F05FFF0A908D
:10220000A8B9144B144800224FF4D5711AF0CAFB38
:10221000002A7FF770AD5BE50E4B0F482A4640F26F
:10222000EA211AF0BFFB0D4B0A93FFF730B9039B6D
:102230000A9A1A644FF0FF330122299518930C92E1
:102240000693FFF73DBB00BF000024400000E03FC5
:1022500000001C4070810200848102006081020045
:10226000044803685B0703D0034A01211DF0C3B98A
:10227000704700BFBC190020E082020010B50F4C6F
:10228000236803F00703022B04D90D4A03212046DB
:102290001DF0B1F90AF0B6FF18B9BDE81040FFF71C
:1022A000DFBF236803F00703022B06D9054A034862
:1022B000BDE8104003211DF09EB910BDBC190020DF
:1022C000038302002683020010B5104C236803F03C
:1022D0000703022B04D90E4A032120461DF08BF977
:1022E0000C4823F0E8FB236840B95B070DD00A4A8D
:1022F0000121BDE8104005481DF07DB903F007033A
:10230000022B02D9054A0321F3E710BDBC190020B6
:1023100054830200DC670200758302009983020087
:102320001FB50AF06FFF28B90E4805B05DF804EB41
:102330001CF0F3BAD0F8AC1009B90B48F5E791F9E5
:10234000190001280BD110236A4604310BF03AFD25
:10235000064869461CF0E1FA05B05DF804FB044844
:10236000E3E700BFB8830200E48302002084020098
:102370003E8402001FB50AF045FF044628B91A48FA
:1023800004B0BDE810401CF0C8BA184901AA0120E9
:102390000BF018FE002804DA15481CF0BEFA04B051
:1023A00010BD144902AA01200BF00CFE002801DA2E
:1023B0001148F2E7114903AA01200BF003FE00289F
:1023C00001DA0F48E9E70023032201A920460BF0B8
:1023D0004DF802A9204620F0A6F9204603A920F0D6
:1023E000A4F90848D9E700BF5F84020046830200D1
:1023F0009B840200BB840200C9840200F1840200B5
:10240000FD840200258502001FB511481CF085FAE5
:102410000AF0F8FE044628B90E4804B0BDE81040A2
:102420001CF07BBA012002900B4903AA0BF0CAFDF5
:102430000023009302AA214618460DF06BF8011EF6
:10244000B2BF0648044906481CF067FA04B010BD44
:102450004985020079850200F1840200B6850200F8
:10246000DC85020070B5134C236803F00703022BD0
:1024700004D9114A032120461DF0BDF8FFF724FFBF
:10248000FFF778FFFFF7FAFEFFF74AFFFFF7BCFF01
:102490000A4D084E236803F00703022B04D90321D9
:1024A0002A4630461DF0A7F800214FF4203016F0E0
:1024B0001DFAEFE7BC1900200C8602003C860200E2
:1024C0002DE9F04F91B08407009302F004030293CA
:1024D000C2F3C20303F10103DDF8688003920546ED
:1024E0000E46059340F0BA81041D30B1072909D882
:1024F0006FF01B0011B0BDE8F08F01F00706344407
:10250000C6F10806009B4FF00009591E4FF0040A5F
:102510004FF0FF330193CDF810904F46CB46534612
:102520000DB1009A22600598002800F3E8809848D1
:10253000009A824203D397488242C0F0E080039A17
:10254000A4EB050E92074FEA9E0000F103810F2FC6
:1025500000F2B180002D00F0058107F140020DEB83
:10256000020C019A0CF8200C0CF8102C0498013085
:102570000490E7E07A285DD84B280ED8472859D830
:1025800029282DD8252852D054D820287AD023386D
:10259000D0F1000B4BEB000B74E04C382E2849D8DF
:1025A000DFE800F0704848484848484848484848EC
:1025B0004B484848484848484859484B4B5959594E
:1025C000704B6D487048184B184848827F4B4848FC
:1025D0004B487F0000204FF0000B4FF0040A38E01A
:1025E0002A38C0B2012202FA00F010EA0E0F49D1D7
:1025F00010F0625C2FD110EA020B43D06046013C20
:102600005444B4FBFAF40AFB04F4002D61D0A3EBAC
:10261000050CA444B4453FF66BAF002868D1042BE9
:1026200047D158F8043B2360043404232AE0019A7C
:10263000013A01924FF0000B24E011F8010C6C28D4
:1026400034D111F8023C00206C2B8346C5D14FF0E9
:10265000080A5346D3E708F1070828F007080734AB
:10266000F8E802AB24F0070435B106982044B042E4
:102670003FF63EAFC4E900AB08344FF0000B4FF01B
:10268000080A534611F8010F002878D0BBF1000F5B
:102690007FF470AF2528F5D1019B013301934FF0F2
:1026A000010B4FF0040AECE7584694E700208346FC
:1026B000A5E7082B02D06FF015001BE708F107080B
:1026C00028F00708F8E80223C4E9002308340823A7
:1026D000D8E768B9042B02D108F10408A4E7082B55
:1026E000E9D108F1070828F0070808F10808EDE724
:1026F000059A013A059258F8042B009210E7039AC4
:10270000900720D5A4EB050E4FEA9E004FF0010C78
:10271000BEF5007FCFD20F2FCDD8F5B107F1400223
:102720000DEB020EC0B2019A0EF8200C0EF8102C20
:10273000BCF1000F3FF41AAF60F07F000EF8200CE0
:1027400009F101090137C5F10802043406924FF678
:10275000DA7E97E74FF0000CDAE7BCF1000F01D00A
:102760000136EFE7029802360028EBD10098CDE958
:102770000631FDF7C5FCDDE906310644E2E7631BDF
:10278000B3F5806F97D23DB9A6F10804E018B1E621
:10279000E066020070E20200029A28609B082B703B
:1027A0009DF81030C2B1EB7085F80290B9F1000FBE
:1027B00005D008A80022C5F1010C97420ED1C5F141
:1027C00001030DF120084FF0000A01930DF1300BC9
:1027D000574512D1601B8DE66B70E5E710F8013BA1
:1027E000190608D50CEB040EB64503F07F033FF63F
:1027F0007FAE04F8013B0132DFE7B9F1000F03D0EF
:1028000098F90020002A17DB029BD3B11AF80B209D
:1028100004F8012B0022019B18191044B0423FF626
:1028200067AE98F8000004F8010B00990392204667
:10283000FDF796FE039A14440AF1010A08F1010813
:10284000C6E798F8002055F822300093029B45F81F
:1028500022300098FDF754FC421CDCE76FF00D00BD
:1028600048E600BF2DE9F04F97B000AF90F802A006
:10287000D7F880B03B62CBF3C0030446FA62BB6179
:10288000894641B9457800780AEB800020444D45DF
:1028900017D8A0EB0409E378FB61BAF1000F02D06E
:1028A0001BF0010F16D1FB6953BBFB6A1BB13A6ADF
:1028B0004946204698474D4628465C37BD46BDE808
:1028C000F08F461C3046FDF71BFC0130304409F107
:1028D0000109DCE7237862687A62FA6A9900796113
:1028E00004EB8301002A40F004814D460E4601EBC3
:1028F0000A094FF000084E4550D101EB0A0610E0DE
:102900001BF0020FD1D023789A007A6162687A6254
:10291000FA6A04EB8301002A7BD14D4601EB0A06DB
:1029200090461BF0050F0CBF02230123FB62FB69DD
:1029300006EB430A0BF00203BB625645BCD016F807
:10294000021B16F8013C54F823909B4B994502D387
:102950009A4B99453AD3BB69002B44D0786A1BF057
:10296000A3FF00283FD09648036813F0060F13D04A
:10297000E9468AB06A46934B53617B6AC2E90631E5
:102980004FF400731384904B42F8103F00234FF430
:10299000125101F05DFBCD46023DCEE716F8013B3A
:1029A000F96254F82300FDF7ABFBD7F88430F96ADD
:1029B00001304BB1D7F8883098453EBFD7F8843006
:1029C00023F8180008F10108054494E7BB6923B116
:1029D000786A1BF069FF0028C5D11BF0010F05D1F3
:1029E000FB6AED1AA9E7BB6A002BA6D04846FDF7A3
:1029F00087FBD7F8843053B1D7F8883098453FBF6C
:102A0000D7F88420431C22F8183008F10108054447
:102A100093E7BAF1000F72D01BF0040672D0D046D3
:102A2000002607F1480052463B61B962FDF798FD68
:102A3000B96A3B6901EB0A02BA62FA69F9695200A4
:102A4000FA60BA6A02EB41023A610BF00202BA6024
:102A50003A69B96A8A4257D162787A621BF0020FEA
:102A600032440CBF4FEA580100211BF0010FD2B2D3
:102A700040F09F801BF0040F14BF40460020BB6154
:102A80006270A070E1703A6A7969FB6A20469847E3
:102A9000051EFFF611AFBB6923707B6A6370FB698B
:102AA000E37041463A6AFB6A84F802A007F14800E5
:102AB0009847B0F10008C0F2BB807B693A6AA9EB85
:102AC0000A01C91AFB68C91AD7E90A0398470028FE
:102AD000C0F2B080A84408EB00054FF0000B07F1EE
:102AE000380AB34572D300213A6AFB6A0846984710
:102AF000E2E656464FF0000807F1380093E75646E5
:102B0000D04697E7B04695E7BA6A12F8021BBA6258
:102B100012F8015C284A54F82500904202D3274A53
:102B200090421ED3BA6932B1786A7B601BF0BCFE5A
:102B30007B6800288CD1BA6802BB08F1280207F133
:102B4000300C08F10100944407F1580252FA80F069
:102B500008F102080CF8101C5FFA88F800F8105C05
:102B600076E7BA693AB1786A7B601BF09DFE7B68B4
:102B700000287FF46DAF1BF0010F09D006F1280289
:102B800007F13000711C161806F8205CCEB25FE722
:102B90001BF0040F3FF45CAF08F1280207F130008E
:102BA00008F1010102EB000808F8105C5FFA81F8F7
:102BB0004EE7002063E700BFE066020070E202001B
:102BC000A419002058860200040000011BF80A30F6
:102BD00087F8373054F82390D7F884302BB3D7F8E0
:102BE00088309B4521D2D7F8843033F81B803A6A6D
:102BF000FB6A012107F13700984700281ADB0544DA
:102C0000B8F1000F06D14846FDF77AFA00F1010845
:102C10001FFA88F83A6AFB6A4146484698470028F6
:102C200008DB05440BF1010B5BE74FF00008DEE722
:102C3000454641E605463FE6014B1860704700BF38
:102C40001816002030B587B00025CDE903010446F1
:102C5000009503A90548059500F09CF9DDE90430CD
:102C60009842B8BF255407B030BD00BFF7E8010057
:102C7000032808B506D91DF066FE092303604FF04E
:102C8000FF3008BD30235843044BBFF35B8F1B5804
:102C9000BFF35B8F002BEED00020F2E7082F00205F
:102CA00030B530231049434308330B44BFF35B8FE7
:102CB0001A68BFF35B8FB2B1BFF35B8F541E53E84A
:102CC000005F954204D143E8004CBCF1000FF6D1FF
:102CD000BFF35B8FEAD1012A05D1302358430A188C
:102CE00000230B50536030BD002F002070B5044608
:102CF0000D461646FFF7BCFF00280ADB084A55B10F
:102D0000302303FB04235B68AB4204D01DF01BFEA1
:102D10000660002070BD30235C431059FAE700BF05
:102D2000002F0020F8B51E46154B174600241D46FF
:102D30001A68904202D15A6891420AD00134042C98
:102D400003F13003F4D11DF0FEFD172303604FF0B3
:102D5000FF342046FFF78CFF00280EDB27B130211F
:102D600001FB04510C3139600EB90120F8BD30234C
:102D700003FB045520353560F7E70020F6E700BF78
:102D8000002F002070B504460E461546FFF770FF71
:102D900000280DDB074A30236343D11849683160AE
:102DA00015B10C3313442B6030235C43105970BDB4
:102DB0000020FCE7002F002070B54FF0FF331C48C7
:102DC0004FF0FF321BF0DCFD1A4B0025BFF35B8F89
:102DD0001A68BFF35B8F7AB10135042D03F130031C
:102DE000F4D11DF0B0FD172303604FF0FF351048FC
:102DF0001BF0C8FD284670BD30246C43BFF35B8FC9
:102E000053E8000F013043E800010029F8D1BFF377
:102E10005B8F094E331932515A6004F10C00304473
:102E200022F066FF04F12000304423F03EF9DEE793
:102E3000D41A0020082F0020002F002030B40446B0
:102E400030251046084A6C43151911516860EB6231
:102E500040B1C36833B10C34131930BC40F20512D1
:102E60001BF07FBD30BC7047002F0020F8B5054631
:102E7000FFF7FEFE002824DB3024134F6C4304F1DF
:102E80000C063E444FF0FF324FF0FF3330461BF04C
:102E900077FD3A1953689B688BB1D26A385912F49E
:102EA000404F0AD029469847044630461BF06AFD39
:102EB0002846FFF7F5FE2046F8BD9847F4E71C4684
:102EC000F3E74FF0FF34F6E7002F0020F0B5094E8E
:102ED000016802460A2700200B4601311C78355D47
:102EE0006D0701D41360F0BD07FB0043A3F1300070
:102EF000F2E700BFF97F02002DE9F84F15469A4628
:102F0000D378234A12F803B06F2B81460F460BF09B
:102F1000030B2BD026D8582B0CBF10260A26DDF821
:102F200028803246002348463946FEF797F8092A9A
:102F300008F1FF38D4B21ED83034B145E4B277F18D
:102F4000000788F8004001D3D04511D82B789B06A4
:102F500005D5082E15D1AB7843F00803AB70404679
:102F6000BDE8F88F03F0F703702BD5E70826D6E706
:102F700081460F46D5E7BBF1010F0CBF37345734FC
:102F8000DBE7102EEBD1AB7843F01003E6E700BF90
:102F9000F97F02002DE9F04F97B08A46039016465C
:102FA0001C460025307808B9284656E325280AD063
:102FB000039B514698470028C0F24F83731C01358C
:102FC0000493049EEEE71822002110A816F01EFCC0
:102FD0007378252B00F0A3800023711C98469E4631
:102FE0009C4618460F4611F8012B2B2A00F0C6808C
:102FF00000F2BD80202A00F0C480232A00F0C480A3
:103000002BB19DF8483043F040038DF84830B8F1BB
:10301000000F05D09DF8483043F020038DF848306C
:10302000BEF1000F05D09DF8483043F010038DF835
:103030004830BCF1000F05D09DF8483043F008033C
:103040008DF8483028B19DF8483043F004038DF8DE
:1030500048309DF8483003F04401442903D16FF310
:1030600086138DF848309DF84830099743F0800367
:103070002A2A8DF8483040F08C809DF8493043F082
:1030800001038DF849307B1C1A782E2A9DF84920BF
:103090000CBF0121002161F341028DF849200CD1C0
:1030A0005A1C09925A782A2A40F083809DF84920B8
:1030B00042F004028DF8492002331A786C2A00F09D
:1030C000A48000F28680682A00F08C806A2A00F0D2
:1030D000A5804C2A00F0AA801A4612F8013B0492FF
:1030E000782B9DF849208DF84B3000F217816D2B1D
:1030F00000F2A980692B00F21181572B00F2BE80EB
:10310000412B03D0453B022B00F208819DF84A3049
:10311000042262F302038DF84A300123CAE08DF8DD
:103120004B30B31C04939DF84930D90740F1FD8022
:1031300054F8048BB8F1000F07DA9DF8482042F0EC
:1031400004028DF84820C8F100085A0740F1F680C3
:1031500054F804BBBBF1000F80F2F5809DF84930B4
:103160006FF341038DF849304FF0FF3BEBE02D2A20
:103170000DD0302A7FF444AF012333E74FF0010C28
:1031800030E74FF0010E2DE74FF001082AE701204C
:1031900028E709A8FFF79AFE099BBB423FF474AFEA
:1031A0009DF848201390C00F60F341028DF848202D
:1031B0006AE709A8FFF78AFE9DF848301490C3F328
:1031C000400242EAD07262F341038DF84830099B15
:1031D00073E7742A26D07A2A7FF47EAF9DF84920BF
:1031E00006210CE05A78682A9DF8492006D1012171
:1031F00061F3C6028DF8492002336DE7022161F3C5
:10320000C6028DF84920013366E75A786C2A9DF88A
:10321000492001D10421EBE70321F0E79DF8492083
:103220000521ECE79DF849200721E8E7BDF8482093
:1032300022F4F04222F0020242F4804242F0020202
:10324000ADF84820DFE76E3BD9B201238B4040F256
:1032500082410B4238D113F0240F52D1DF075DD5E4
:103260009DF84A30032161F302038DF84A3002F0E1
:103270007803A3F14000434243411BE0A3F158010E
:10328000C9B2012000FA01F111F4624F7FF43EAFA0
:1032900040F6010739421DD111F4043F3ED09DF89C
:1032A0004A3060F3020302F07802402A8DF84A3077
:1032B00034D000239DF84820C2F340010B4363F350
:1032C00041028DF848202EE79DF84A30022161F333
:1032D0000203E8E79DF84A10022002F0780260F34A
:1032E0000201402A8DF84A1002BF9DF8481041F0B3
:1032F00001018DF84810632BDBD1131E18BF012389
:10330000D8E79DF84A30032161F3020312F0780FE9
:103310008DF84A3014BF01230023CBE79DF84830D5
:1033200043F001038DF84830C3E79DF94820002A97
:10333000B4BFDDF84C804FF0FF3806E79F077FF5FC
:1033400013AFDDF850B09DF849100023CDE91333D9
:103350009DF84A3003F00703012BC1F3C30132D1BA
:10336000CB1E042B04D8DFE803F0204545202000C5
:10337000236801294FEAE372CDE910321BD19DF990
:103380004030DA17CDE9103204349DF8483013F09C
:1033900003074FD0049B0398324651461BF0F6FAC0
:1033A0000028C0F25A8105440BE654F8043BDA17B2
:1033B000CDE91032E9E70229E6D11AB243F3C0336E
:1033C000CDE91023E0E7022B24D1CB1E042B04D837
:1033D000DFE803F0181010181800012954F8043B16
:1033E0004FF0000214D00229CDE91032CDD19BB2AA
:1033F0001093CAE7073424F00704F4E80223CDE968
:103400001023C2E754F8043B109300231193BCE748
:10341000DBB2CDE7042B08D1073424F00704D4E94C
:1034200000230834CDE91023AFE7032BADD154F8C6
:10343000043BDDE79DF84B0078283FF6C2AD6228DB
:103440001ED8252850D058287FF4BBAD0DF13E037F
:103450000093DDE910010AAB12AAFFF74DFDBBF1A5
:10346000000F814680F2C280B9F1000F3FF4A9AD90
:103470000DF13E06A6EB0903002F7BD0013379E066
:10348000633815283FF69DAD01A252F820F000BF29
:1034900063350000C1350000C32F0000C32F0000BA
:1034A000C32F0000C32F0000C1350000C32F000050
:1034B000C32F0000C32F0000C32F00000F360000F1
:1034C000E735000021350000C32F0000C32F0000A6
:1034D000F9340000C32F0000E7350000C32F0000BF
:1034E000C32F0000E7350000039B51469847002892
:1034F000C0F2B380013564E5BBF1000FDDF8409008
:103500000ADB5946484616F071FBB9F1000F3FF44B
:1035100058AD09EB000620E04846FCF7F1FDF8E75E
:103520001098002800F087800DF13E060AAB009647
:1035300012AA0021FFF7E0FCBDF84A3003F0EF03C8
:1035400043F4F04343F01003BBF1000F8146ADF8A4
:103550004A304ADA00283FF434ADA6EB09030027CD
:1035600008E0109B8DF8283000270DF129060DF199
:10357000280901239DF84A1011F01002069260D02C
:103580000233139A059213444A0644BF14995B18F8
:10359000B8F1000F6EDDA8EB03089DF8483058071E
:1035A000C3F3800B66D459065AD53FB1039B5146ED
:1035B00038469847002850DB01355F46302350E0FD
:1035C0001E075CBFC3F300135F01DDE9102348BF92
:1035D0002B27002BBFF63AAF524263EB4303CDE9F2
:1035E00010232D2732E7002730E700279DF84810E9
:1035F0000DF13E03A3EB09036FF386119B458DF894
:1036000048107FF631AFABEB030313932CE7109B0D
:1036100007293FF6D6ACDFE801F00C04060C0808D9
:103620000C0C1D70CDE41D80CBE4EA17C3E90052F9
:10363000C7E41D60C5E4314E0746A6F10509052320
:1036400098E7080748BF01339BE7184607935146A0
:10365000039B98470028079B04DA17B0BDE8F08F5A
:103660002023C346594600290BF1FF3BEDDC4544BE
:103670006D1AD84637B1039B514638469847002803
:10368000EBDB01359DF84A30DA0601D41B0706D57D
:10369000039B5146302098470028DEDB0135069B0E
:1036A0003BB19DF84B00039B514698470028D4DB63
:1036B0000135059F2F4406E0039B51463020984773
:1036C0000028CADB01357B1B002BF5DC0398334651
:1036D0004A4651461BF05AF90028BEDB0544A8446F
:1036E000A8EB0503002B7FF76CAC039B5146202011
:1036F00098470028B1DB0135F2E700BF11870200CF
:103700002DE9F047058B04462807904611D402297D
:1037100005F0070540F0CC8020461BF02FFD78B166
:103720000138218B042811D8DFE800F0C2106D8524
:10373000950001290CBF45F0100545F020052583B3
:1037400088F31188BFF36F8FBDE8F08701F0070A97
:10375000AA4500F0A5800027B9463E46A368002B85
:1037600000F0BC8041F00801218388F31188BFF389
:103770006F8FA168002900F0BA800D68002900F061
:10378000B680D1F80480334652462046C047002D0B
:1037900076D02B6829461D46F0E701F007035A1F33
:1037A000012A1BD8002221F00701062B276889B2C5
:1037B000C4E9002209D13B4603E0628B01326283F7
:1037C0001B68002BF9D141F00201218320461BF038
:1037D000D5FC00287AD041F0200176E0042B0AD1F4
:1037E00021F0070189B2218320461BF0C7FC10B1EC
:1037F00041F020012183218B01F0070AAA454FD017
:103800000027B946AAE7236921F0070141F0060124
:10381000062DD3F8009021832DD1B9F1000F3FD0B0
:1038200041F00801218388F31188BFF36F8F3A4973
:103830002046C84729E021F00701236941F004012F
:1038400089B2042DD3F804902183E6D000273E46A8
:103850004FF0040A82E721F00701236941F00501D6
:1038600089B2052DD3F808902183D6D000273E4693
:103870004FF0050A72E700273E464FF0060A6DE753
:103880002B4687E7B9F1000FD1D1EFF31188202340
:1038900083F31288BFF36F8F238B23F008032383F6
:1038A000258BEA062ED525F01003238305F00705A6
:1038B0006669218B002EBFF670AF00232768C4E92C
:1038C000003321F0070141F001012183218B01F038
:1038D000070AAA454FF000097FF440AF002F9CD0A3
:1038E00041F00801218388F31188BFF36F8F002F07
:1038F000C8D03D6839463346524620461BF06AFC24
:103900002F46F4E7AB067FF51BAF25F0200323839A
:1039100005F0070500E700BF01F201002DE9F047BF
:10392000DFF85880044607464FF0010914B93846BD
:10393000BDE8F08794FAA4F5B5FA85F509FA05F320
:103940002E0108EB05156FEA030A24EA03042B7B1A
:10395000002BEBD058F806301B694BB946440422C3
:1039600073682846196807EA0A0700F031FBDDE7AB
:10397000284698470028D9D1F0E700BF746B0200B1
:1039800030B51049104889B0002222F022FD0F4DB9
:103990000F4900220023CDE9062300240E23CDE9A0
:1039A0000334CDE901440B4B00944FF44072284698
:1039B00014F04EFC0849284614F084FB204609B058
:1039C00030BD00BFDD390000C0220020001E0020F5
:1039D000C03D00201D3D000012870200014814F088
:1039E000A7B800BFBC1B00202DE9F04780461F4848
:1039F0000F461BF066FD0646002830D000252846FD
:103A0000BDE8F087237B6BB12368DB680BB12046F0
:103A1000984723681B69D3B9636804221968204654
:103A200000F0D6FA013610344C45EBD3B8F1000F54
:103A3000E5D0002DE2D02846FFF770FF0546002FA5
:103A4000F7D000214FF4A47014F050FFF1E72046A6
:103A500098470028E0D00AFA06F31D43E2E7044C39
:103A6000DFF8109005464FF0010ADDE7D02F002067
:103A7000746B0200946B0200014B53F820007047F6
:103A80009C70020008B5034608462BB1044A136037
:103A900000F084FD002008BD6FF01500FBE700BFBB
:103AA0001C16002010B5044C237813B9034814F0F9
:103AB0003FF80123237010BDF43B0020BC1B002005
:103AC00010B504460B481BF0FCFC5CB1BFF35B8FE8
:103AD000094B53E8001F013943E80012002AF8D1CE
:103AE000BFF35B8F054822F080FC0548BDE810401D
:103AF00014F01EB8C82F0020CC2F0020C0220020B8
:103B0000BC1B00200020064BBFF35B8F014653E82F
:103B1000000F43E80012002AF9D1BFF35B8F704712
:103B2000C82F002070B5FFF7EDFF084C084E054682
:103B3000B44200D370BD63685B792BB123685B68C6
:103B400013B12946204698471034F1E7746B020000
:103B5000946B020010B5044C044920461BF027F872
:103B6000034B1C6010BD00BF60190020887002006C
:103B7000C02F0020094A0A4808B500231370094ADB
:103B80001360094A4FF400411360FFF77BFFFFF712
:103B9000E1FFBDE8084000F06BB900BFF53B002035
:103BA000BFF40100C82F0020CC2F002001460022C6
:103BB000014800231BF01CB86019002001481BF0CD
:103BC000B2B800BF60190020024B014618681BF014
:103BD000FEB800BFC02F002001481BF033B900BF62
:103BE000601900202DE9F041354B1878002864D089
:103BF000FFF7E4FF044698B1BFF35B8F314B53E806
:103C0000001F013943E80012002AF8D1BFF35B8F8F
:103C10002D4DDFF8B88045452DD32046FFF7D4FF62
:103C20002B4B2C4C1B68002B19DD22F08BFB4FF427
:103C30007A72A0FB020302FB0131C30BD4E900201E
:103C400043EA41439B1A4FEAD13140F2E93261EB3A
:103C50000001934271F1000101D3FFF763FFD4E942
:103C6000003213F57A7342F10002C4E90032BDE874
:103C7000F041FFF7B1BF6B685B793BB121784B072F
:103C800006D52B6821461B68284698471035C2E7A1
:103C900020462688C1F3C20700F0BAFAC6F382169E
:103CA0000246002EEDD00028EBDB012339462846E2
:103CB00000F0A8F9B042E9D3E3E7BDE8F08100BF26
:103CC000F43B0020CC2F0020746B0200946B0200A8
:103CD000C82F0020B822002070B50D4D297861B999
:103CE0000120FFF781FE0B4C0B4EB44206D3FFF7C9
:103CF00079FF0028FBD101232B7070BD63685B79CD
:103D00001BB1236820469B6898471034EDE700BF3D
:103D1000F53B0020746B0200946B020000212DE93A
:103D2000F0470846FFF760FE044648B340F2676874
:103D30004FF0000914F016FE1A4B186030B11A4B00
:103D40001B68092B02DD194813F0F2FE184FDFF84B
:103D50005CA0002544B12046FFF7E0FD044618B9F9
:103D60004FF0FF384FF0FF39FFF73CFF064628B908
:103D7000B5B942464B46504613F00EFF3546E9E7CB
:103D80004FF0FF384FF0FF39D4E72B689B691BB128
:103D900000221146284698471035BD42F5D3E8E782
:103DA000044DFAE7C42F0020CC2F0020BC1B0020BC
:103DB000946B0200746B020013B518481BF081FB72
:103DC000174B1B7873B1EFF31184202383F3128810
:103DD000BFF36F8FFFF706FF84F31188BFF36F8F78
:103DE00002B010BD0F4B1B68002BF9D050B9002258
:103DF0000023CDE900230C484FF40042002315F0C6
:103E000079F8EDE70928EBD1074822F0EEFA0748E8
:103E100002B0BDE8104013F08BBE00BFCC2F0020D5
:103E2000F53B0020C42F0020C0220020BC1B002036
:103E300010B5064B1B68044698472146A06004480D
:103E40001AF052FFBDE81040FFF7B6BF1C16002065
:103E500060190020044A054B9B1AB1EBD30F34BF05
:103E600052F8310000207047346A0200746B02007F
:103E70000B480C4B30B51B1A0B4CDB0800210430EF
:103E8000994200D130BD10F83120256802F00702B8
:103E900025F007052A4344F8042B0131F0E700BF61
:103EA000346A0200746B0200A4190020F8B50B4FAD
:103EB0000B4DED1B0646ED080024AC4203D14FF03C
:103EC000FF342046F8BD57F8340020B13146FCF7E6
:103ED0008BF90028F5D00134EFE700BF346A020007
:103EE000746B020000282DE9F047884615461F46EE
:103EF0001DDADFF89890264E4FF0000AA6EB09066F
:103F000036095446B24509F1100902D12046BDE8F0
:103F1000F08759F80C0C3B4600792A464146FFF7DA
:103F2000E1FF844238BF04460AF1010AEAE7194B6F
:103F3000194AD21AB5EBD20F26D203EBC5031C796E
:103F4000BC4228BF3C46154EC0B200EB400056F8BC
:103F500025300722824023EA020304F00702824050
:103F600013430021032223FA02F000F007008142EC
:103F700002F1030238BF01461E2AF4D123F00703E1
:103F80000B4346F82530C1E70024DCE7746B0200E0
:103F9000946B0200346A0200746B0200A4190020C2
:103FA000F8B5094D094BED1A06460F46ED080024F9
:103FB000AC4200D3F8BD002122B23B46304601346A
:103FC0001BF09FFAA4B2F3E7746B0200346A02009C
:103FD00038B50B4BC31A0D461B111146426801330D
:103FE0001371436804469971FFF7DAFF63681D6037
:103FF000636801225A71BDE83840FFF753BD00BF26
:10400000746B020070B14168097973B1002A17DB43
:10401000CBB20C4951F8220003EB4303D84000F027
:10402000070070474FF0FF31EFE707490748401A94
:10403000B2EBD00F3ABF01EBC201087918467047C6
:1040400004207047A4190020346A0200746B020037
:104050002DE9F04F8FB004AFC1F34A28B8600D4688
:1040600091467B600C0DB8F1000F67D0002607F178
:1040700014034FF0040B4FF00A0AC7F80C80C7E98D
:1040800007667E620193CDF808B0CDF800A007F175
:104090001C03F96832464846FEF7E4FBB0F5006FB2
:1040A000034620D32A48036813F0060F17D06C4646
:1040B0008AB0D9F8041004AB264DC3E9055140F28B
:1040C000FF71D9611A464FF400711984224B42F8EE
:1040D000103F4FF412513346FFF7BAFFA5462C3775
:1040E000BD46BDE8F08FC0F30A0804F1170018447C
:1040F00020F0070080083B60FFF758FD68F3532568
:10410000044690B13B68154AC7E9083600F1100132
:1041100007F11403F961CDE900A3CDF808B0F968FF
:1041200007F11C034846FEF79DFB68F353257B68A7
:10413000B9682A4620461BF00EFAD0E704F11700B2
:1041400020F007008008FFF731FD0446EDE700BFCF
:10415000B419002027870200040000012BF501009C
:104160002DE9F04F87B0DDE91279DDE9105A0446F8
:10417000039193469846DFB1CDF800903B465246F6
:1041800010210020CDF81490FEF79AF9B0F5006FD9
:1041900006460ED31C48036813F0060F30D01B4AA6
:1041A00040F2FF73022107B0BDE8F04F1BF02CBABC
:1041B0003E4605F11700304420F0070004F00704E4
:1041C0008008FFF7F3FC0BF0070BE40044EA8B14C4
:1041D00044EA462444EA0554054640B13FB1CDF8CF
:1041E00000903B46524631461030FEF769F903997C
:1041F00043462246284607B0BDE8F04F1BF0ABB956
:1042000007B0BDE8F08F00BFB41900206687020038
:10421000406820B1034BC01A40F38F0070474FF045
:10422000FF307047A41900200EB403B503AB01465C
:1042300053F8042B044801931BF017FA02B05DF801
:1042400004EB03B0704700BF79F60100CA0605D43D
:104250008B064CBF02490349FFF7E6BF704700BF1A
:104260001A8B02009E8702002DE9F04F89B09A4612
:10427000149B06939DF84CB0159B0593169B179EB7
:10428000049304460D469046BBF1000F00F09D805C
:1042900006F4807307931BF032F906F00209024618
:1042A00000283ED092492046FFF7BEFF0746B9F1ED
:1042B000000F08D016F0440F35D18E492A4620460B
:1042C000FFF7B2FF074406F0010353B18A4B8B4955
:1042D00053F82B208A4B2046002A08BF1A46FFF7C6
:1042E000A3FF06F48073002B49D006F00803002BCF
:1042F00063D1B8F1000F66D0824942462046FFF7ED
:1043000093FF0546069B3D44002B6DD1049B002B7B
:1043100073D1F30700F1E58031462046FFF796FFA1
:10432000D9E00746C3E7784B18680028CAD0774B16
:104330004FF47A791B68B5FBF3F54FF46161B5FB77
:10434000F0F300FB135509FB05F54FF03C0CB3FBF4
:10435000F1F201FB1231B5FBF0FEB1FBFCF300FB07
:104360001E550CFB131109FB05F50091B5FBF0F58B
:104370006749CDE901E52046FFF756FFA2E706F0C1
:104380000803EBB1634B644953F82B202046FFF739
:104390004BFF0546B8F1000F05D05A49424620466A
:1043A000FFF742FF0544BAF1000FABD05B4952461C
:1043B0002046FFF739FF0544A4E74FF0000AE1E784
:1043C00006F00805E6E745469CE7BAF1010F069BB3
:1043D00006D1002B65D1049B002B7CD000250CE07E
:1043E000002BF8D04E485DE04E48069B4E492246D1
:1043F0001AF029FA049B002B69D0DFF83081DFF82E
:104400003091049F3146102F204628BF1027FFF718
:104410001DFF4FF0000A554546DC059B49461A78BA
:104420002046FFF701FF4FF0010A1AF0070F03D1F2
:1044300041462046FFF7F8FE57453CD9059B4946C3
:1044400013F80A202046FFF7EFFE0AF1010ABAF13D
:10445000100FEAD1374920464FF0000AFFF7E4FE7B
:104460005246059B9A5C344B995C11F0970F08BF3C
:104470002E2232492046FFF7D7FE0AF1010ABAF18F
:10448000100F1DD01AF0070F03D141462046FFF749
:10449000CBFE57455246E4D841462046FFF7C4FEBE
:1044A000EBE720485D46A0E741462046FFF7BCFE0B
:1044B0000AF1010AAFE722492046FFF7B5FEC4E73B
:1044C000059B3B440593049BDB1B049399D1BBF1F3
:1044D000000F7FF41EAF204609B0BDE8F04F1BF07F
:1044E000B7B8074A05492046FFF79EFE14E700BF0C
:1044F00016B00200A6870200AC700200038C020016
:10450000A1870200CB870200D82F0020D42F0020E3
:10451000AF870200C0700200CF870200D58702007B
:10452000AFF6010079F601006BF60100E2870200A8
:10453000DA870200E4870200F97F0200119202008C
:10454000E087020073B542F20F738B4228BF0B461F
:1045500005680F4A0446052168461AF0EBF96368BE
:104560000C495B6806460B2228461BF063F863681B
:104570003246694628465B681BF05CF8636806496A
:104580005B681B2228461BF055F802B070BD00BFC7
:10459000A3D9020002880200E6870200074A002130
:1045A0000123904206D8064A01B901231360054B46
:1045B0001860704740085B000121F2E740420F009D
:1045C000D42F0020D82F0020014B01221A707047F1
:1045D000F63B0020014B002019607047F02F0020AF
:1045E0000148FFF7AFBF00BFF070020010B5064BE7
:1045F00018680C46FFF740FA21460346BDE8104014
:1046000002480F22184700BFF02F0020F070020070
:10461000F8B5094D094B0A4ED5E9004701221A7039
:104620000CB92C60F8BD214630463A4600F01EF821
:10463000241A0644F4E700BFE42F0020F73B0020D3
:10464000F83B002010B9074B18707047064B1B78D9
:104650001BB141F2883021F029BAA420002114F0C6
:1046600045B900BFF63B0020F73B00202DE9F0479D
:10467000DFF878901E4F80460E46042499F80050CB
:10468000A5B921F006FA324682464146284612F084
:10469000FFFD0546504621F004FAE5B101233B70C9
:1046A00099F8003073B93046BDE8F087324641468C
:1046B000002012F0EDFD0546EFE72046FFF7C2FFB0
:1046C000651E2C46002012F027FE0028EBD03B7818
:1046D000002BF2D1E7E73B78002BE4D0013C2046E9
:1046E000FFF7B0FF3B78002BC8D1DCE7F73B002099
:1046F000F63B0020014B0360002070470071020070
:1047000010B5044621F046F80349024620461BF046
:10471000E0F9002010BD00BF5588020073B51346B4
:1047200000220192044601AA58680A211BF06BFB83
:10473000019D95B920EAE0744FF40046294640F205
:10474000E7304FF47A720023C4FB0601FCF786FCC5
:1047500014F0CCF8284602B070BD2A460249204623
:104760001BF0D3F9019DF5E78188020008B5034AE3
:1047700003491BF0AEF9002008BD00BF6E8902009E
:10478000758902002DE9F34117460023044601AA6A
:10479000B86801930A211BF036FB019DC6B24DB1EA
:1047A0002A46144920461BF0B0F9019D284602B064
:1047B000BDE8F081042E09D90F49324620461BF08E
:1047C000A4F920461BF0F5F90125EFE77868FFF71B
:1047D0006DFBB0F1000804DA7A68084920461BF046
:1047E00094F9002133460FFA88F208461AF089FE40
:1047F000DCE700BFA0890200C7890200DE89020051
:1048000010B5044611F08CFC0749024620461BF007
:1048100060F9204605491BF05CF90548214614F073
:104820005FF9002010BD00BF3D8A02005C8A0200D3
:1048300035480000F0B58FB0D0F8A07004460D46A2
:1048400021F03DFC064614F08DF8204B2049214A0A
:10485000002E08BF1E46844218BF0A46234628463B
:104860001D4900961BF035F9D4E90A23CDE9002350
:10487000284694F90E30227B18491BF02AF906A924
:104880002022204613F02EFC636E1549024628466E
:104890001BF01FF905A9204621F01FFC024628B194
:1048A000104928461BF015F90FB0F0BD059B642296
:1048B000F91A4A430091B2FBF7F20B49CDE90172B4
:1048C00028463A461BF005F9EEE700BF668A02006B
:1048D000E2870200D19B0200698A0200758A020009
:1048E000A18A0200B88A0200E58A0200F0B500251C
:1048F00091B00446294608AF1C2209A814F086FF8F
:10490000134E1A222021384614F080FF2146114808
:1049100014F0E6F807AA4FF40061304621F0D1FB0D
:10492000079A0097C2F5006164234B43DB0A0593A5
:104930004FF40063CDE90313CDE901322046064967
:104940002B46A6F140021BF0C4F8284611B0F0BD7A
:10495000405C00205D490000368B020070B50446C3
:10496000D0F8A06088B00D4607A921F0B6FB02463A
:1049700028B10F4928461BF0ACF808B070BD20469E
:1049800021F09DFB079B0096F11ACDE90131094BFF
:1049900064224A43002818BF0346B2FBF6F20649D8
:1049A000CDE90362284622461BF093F8E5E700BFF5
:1049B000B88A0200668A02007F8B02002DE9F0436C
:1049C00087B00546684612F0C7FC009E184A194F8A
:1049D000DFF86480DFF86490142303FB006608218D
:1049E00028461BF05BF8009CB44203D3002007B0BC
:1049F000BDE8F08323680BB11A7832B923463A46F2
:104A0000142101A814F072FF01AB42460821284688
:104A10001BF044F8204621F04EF8094B094A0028C3
:104A200008BF4B46082128461BF038F81434DBE752
:104A3000F28B0200FC8B0200018C0200E98B020069
:104A4000E38B0200F8B802002DE9F04114468846D5
:104A5000074610226068002115F034FCB8F1020FFF
:104A6000064607D8254A2023082138461BF016F8A9
:104A7000336816E00A220021A06815F023FCC5B2B5
:104A80001E4A2B46082138461BF008F8B8F1030FE0
:104A90001AD1102D0CD0202DEAD0082D0BD133784F
:104AA000DBB2174A082138461AF0F8FF002009E067
:104AB00033889BB2F5E73846124A08211AF0EEFF18
:104AC0006FF01500BDE8F081E0681022002115F0BC
:104AD000F9FB0D4A03460446082138461AF0DEFF6A
:104AE000102D06D0202D07D0082DE4D1E4B234706B
:104AF000DCE7A4B23480D9E73460D7E7358C020014
:104B0000608C02004A8C0200718C02002DE9F04F8B
:104B1000584BDFF864A185B09146012207468846CC
:104B20001A6002F091FE4FF0FF3520262C464946D0
:104B30005246404602F0ACFE411C06D16A1C4DD1E3
:104B40004E4938461AF0E1FF1BE073281ED0772843
:104B500030D0612815D1DFF828B11022DBF8000031
:104B6000002115F0AFFB05460028E0D11BF0EBFE5D
:104B70000368162BDBD1DBF80020424938461AF0D7
:104B8000C4FF6FF0150005B0BDE8F08FDFF8F0B09E
:104B90000022DBF80000114615F094FB04460028C3
:104BA000C5D11BF0D0FE0368162BC0D1DBF8002066
:104BB0003549E3E7DFF8C8B00022DBF80000114612
:104BC00015F080FB06460028B1D11BF0BCFE03683F
:104BD000162BACD1DBF800202C49CFE7631C01D1A8
:104BE0002B49AEE75FFA86F8C6F3C406002C3FD027
:104BF0006B4629461A46A6EB050C0CE0B8F1100FDF
:104C00001DD0B8F1200F20D0B8F1080F2AD10878B4
:104C1000187031443344A64203D80CEB010010282D
:104C2000ECD9102CA14628BF4FF0100929464B465D
:104C3000384601F005F81035A4EB0904D6E70888DA
:104C400080B21870000A5870E3E7086818704FEADD
:104C5000102E83F801E04FEA104E000E83F802E0B8
:104C6000D870D6E70B4A082138461AF017FF88E7B4
:104C7000204688E780160020BF8C0200C68C020008
:104C80009C330020858C0200988C0200AB8C0200C3
:104C9000E38C02004A8C020070B50F4E0446337854
:104CA0000D4671B123B1BDE870400C491AF02DBF1B
:104CB000012333700A4920461AF00BFF0123337099
:104CC00004E083F001033370002BF3D12946204622
:104CD000BDE870401AF08ABF083C0020FD8C02003D
:104CE000388D020070B504463B480378182B02D17A
:104CF0000B78112B31D0013A0B468D18AB4225D1E0
:104D00008B5C0A780370A2F13003092B334C04D971
:104D100022F02003413B052B04D823683049CA54B4
:104D2000013323602368022B33D110222C48002149
:104D300015F0C8FA2B4A136803F8010B13602A4ACE
:104D40001368013313600023236022E013F8016B22
:104D5000182ED3D11E78112ED0D1234D23492A6885
:104D600020461AF0B6FE20460021FFF795FF204BA3
:104D7000187870B91F4A2B681168042B0ADC08B137
:104D800011602B6013F003010BD1126813681BBA7A
:104D9000136070BD086800BA41F8040B043B0120A1
:104DA000EBE75B4203F0030358BF5942022904D1E9
:104DB000126813885BBA9BB2EAE70329E9D110684D
:104DC00002681104C2F3074301F47F010B4302F4AC
:104DD0007F4213430360DCE7093C0020F42F0020EE
:104DE0000B3C002000300020F82F0020628D0200D4
:104DF0000A3C0020FC2F00202DE9F84F0C462B49DF
:104E0000DFF8AC80DFF8AC90DFF8ACB000230B60CB
:104E10002A4988F8003006460B601546012C2F46BB
:104E200055F804AF1ED902224946504614F068FED8
:104E300080B99AF80220003A18BF01229244204912
:104E40000222504614F05CFE30B9012388F800308D
:104E5000013CE3E70022F1E749465046FBF7C4F97D
:104E6000A8B9043700221146786815F02BFA154BC3
:104E7000002211461860786815F024FA124B134985
:104E800018603046FFF708FF0020BDE8F88F9AF859
:104E900000202D2AE6D19AF80120002AE2D05246BD
:104EA000594630461AF015FED2E700BFF42F002015
:104EB0000A3C00207C8D0200828D0200F82F002029
:104EC0007F8D020000300020FC2F0020E54C000008
:104ED00007B50A4820F0EFFD60B1094A074912689A
:104EE000084804230093012300F012FF002003B0C0
:104EF0005DF804FB6FF01200F9E700BFC86702001D
:104F0000A8710200946B020010B54468C4E9001255
:104F1000A36042684023D36402F158031363002363
:104F20000821C2E90E33C2E91133C2E90633C2E9EE
:104F30000933D1621468536302F1500113641161A3
:104F400053611362C2F8D030A36823B11B6C13B154
:104F5000044920469847A3681B6A0BB1204698472E
:104F6000002010BD694F00002DE9F74304460D46AF
:104F70008368DB6B03B19847A368DB6A0BBB4FF018
:104F8000000905F13008EA6C01A940461AF0DCF985
:104F90000746002836D0A36801991B693BB3024637
:104FA00020469847064628B3314640461AF0EBF9AA
:104FB000B7424FF00109E6D0D5E90131002098470A
:104FC00003E0204698470028D9D1A368DB6963BB7A
:104FD00005F11007EA6A01A938461AF008FA0646F0
:104FE00050BB20461AF0B6FBC5F8D0602FE06FF03A
:104FF0005706D9E7014640461AF0C5F9B9F1000F46
:10500000E3D0D9E71648036813F0060F03D0154A1A
:1050100002211AF0F0FAA3681B69002BEED00122DE
:105020000DF1030120469847E8E7204698470028FD
:10503000CED103B0BDE8F083A3680199DB685BB112
:10504000024620469847014638461AF0F0F9D5E95D
:10505000013101209847ECE76FF05701F4E700BFFA
:10506000341A0020E48E020010B58168044618311D
:1050700001F036FBA168034A20461831BDE8104014
:1050800001F0BCBA268F020001491AF001BC00BF32
:105090001A8B0200F7B504468068D0F878325A07B8
:1050A0000D4605D500211AF041FCE0681BF0E6FA38
:1050B000E368DB6873B9002D3BD0A66806F156079C
:1050C00038461AF0F2FB002835D0394606F5AB70A9
:1050D00014F0B8FCA268E0680DF1060356322946C8
:1050E0001BF0CFFA58B9A06800F5AB71563014F038
:1050F000A9FCA06856301AF0D8FBADF8060020468F
:105100001AF041FFA368D3F874329B0603D50B490C
:1051100060691AF0BDFB204601F08CF8A268BDF86A
:105120000630A2F85230A2682046A2F850301AF099
:10513000CDFE03B0F0BD86F85601CBE7486F020004
:105140002DE9F04FA7B004465422002111A814F015
:105150005DFB0023CDE90533A36820465633029357
:105160001AF018FF20461AF09AFE10B96069FFF78E
:105170008BFFA06814220021183014F047FB204652
:1051800000F09EFFA168E068B1F85020563100267B
:105190001BF0AEFA20461BF02DFB4FF0FF37B24656
:1051A00003960DF14408B3463546B146DDE90532B4
:1051B000012A6DD0132B6ED85FBBBBF1000F0AD054
:1051C00020461BF038FBA2681423563211A90DEBC0
:1051D000030000F029FEB9F1000F0CD099F811304E
:1051E000FE2B08D1059B26AA02EB830252F8542C11
:1051F0000AB101330593A068059D436A002B40F076
:10520000B680CEB1C3699E422DD00D9600F118052F
:1052100024E0029A0223414606A800F005FE069902
:10522000D8F804200292034631B101290AD148B1CD
:105230006D4A20461AF060FF6FF00705284627B038
:10524000BDE8F08F059B002B34D0D8F8000001F0AA
:1052500067FA98B166B1A5680D9618350CAE0FCEF9
:105260000FC533682B602046FFF7FEFE0125E5E7FA
:105270005E4A012120461AF03FFFDDE7059BCBB1D6
:10528000D8F800202946204601F0ECFB022809D17D
:10529000059B132B91D9069B022B8ED1544B554A5B
:1052A0000121C6E7032805D0059B013305934FF084
:1052B000010B7BE7039B33B9D8F8001007AA4846D7
:1052C0001AF021FD054608F10408013F9DB3EB6883
:1052D000BBF1000F08D0F3B120461AF05BFE204668
:1052E0001AF0F4FD444AC4E7ABB1A368DDF814A09A
:1052F000AE4603F1180CBEE80F00ACE80F00DEF874
:105300000030CCF80030AB682BB96B7CFE2B04BFAF
:105310002F7C07F1FF37D5F804C0BCF1000F08D08F
:10532000AE46BEE80F000CAE0FC6DEF800303360AC
:105330006646A94603E0059B53B101230393069BF0
:1053400017B9022B7FF432AF059B013305932DE78C
:10535000A368DB6A13B1DB68002BEED1274B009307
:10536000274A119B012120461AF0C6FEE5E790F876
:105370002830A5EB0A05BBB190F829104FF6FF7253
:10538000FF2918BF0A469D4202D313449D420BD900
:1053900083691C4A012120461AF0AEFE2046FFF721
:1053A00063FE6FF0150549E701211AF0B4FAA06811
:1053B00000F543701AF0D3FAA36811AA294602EB4C
:1053C0008A025B6A204698470546A0684FF0FF3284
:1053D0004FF0FF3300F543701AF042FAA068002145
:1053E0001AF099FA2AE700BF348F0200488F0200B2
:1053F000A98F02008DAF0200668F0200958F020018
:1054000085B00200CD8F020010B5836802221A75A4
:1054100083689B6C0446BBB91AF0F9F98368D3F82A
:105420007832DB040BD50321084B094A1AF064FEDD
:10543000A0686FF4805100F51E701AF002FA204641
:10544000BDE8104001F04AB810BD00BFE88F02006F
:10545000038C02002DE9F04F04468068B1B00121B1
:1054600000F51E701AF0DEF9A3681B7D022B20D117
:1054700000230993A36860689E6C03681D6909ABEB
:105480000EB310221BA9A847099B93B1A068012164
:105490001AF041FA099A1BA92046B047A0680021DA
:1054A0001AF039FAA3689B6C002BE3D12046FFF772
:1054B000ABFFA0686FF0010100F51E7031B0BDE8D0
:1054C000F04F1AF0BEB901220DF12301A847099B44
:1054D000002BEED09DF923109DF82330A2680029FF
:1054E000C8DB517D032900F20E83DFE811F00400D0
:1054F0008D02A5020C030D2B56D00A2B32D0B2F828
:1055000078126FF3CA01A2F87812092BA06860D054
:1055100013D8002BAED0082B00F0DC815A1C8C492C
:10552000A068D2B28A5C12F0970F00F0DF810121EF
:105530001AF0FCF99DF8231000E11B2B46D07F2BBD
:10554000ECD1D0F874329D0794D501211AF0EEF910
:10555000A368D3F87432190700F1C48120461AF009
:1055600014FE87E7D2F87812C1F3C70129B1D2F847
:105570007812C1F3C7010A29D0D1B2F8781263F3C7
:10558000CA01A2F87812A568B5F85010C1B928462A
:105590001AF0CCF9E0681BF071F86069FFF774FD50
:1055A0002046FFF731FF65E7D2F87812C1F3C70153
:1055B0000029E2D0D2F87812C1F3C7010D29DBE748
:1055C0002046FFF7BDFDC5F82403E9E70123437535
:1055D00050E7D0F874329A077FF54CAF01211AF0EA
:1055E000A5F9A068B0F85030FF2B3FF443AFB0F8F6
:1055F000522000F1560100F5AB70FAF7B1FFA36835
:10560000B3F852201344002583F85651A2681BA911
:10561000142302F5AB720BA800F006FC0B991429B9
:105620003FF628AF30AB03EB810343F8545CA3682B
:10563000B3F85220002A51D1002958D100250A95EB
:105640000A9B30AA02EB8303002653F854AC504661
:105650001AF02BF9B3468146B046374616AA3946AA
:10566000284600F0BDFC034600284FD1012EA76854
:1056700072D10A9B30AA02EB830353F8540C1AF040
:1056800014F907F1180206464146284600F0A8FC26
:10569000056828461AF009F9864205D0821B92B2A5
:1056A000A91920461AF06FFDA0682A4AB0F85230B6
:1056B000034493F85630D15C11F0080142D1D0F880
:1056C0007432DF0739D51AF03BF92021204600F06B
:1056D000CDFEA06801211AF033F9CBE60029ADD048
:1056E00013441C4A93F85530D35C1B0702D401299C
:1056F000A4D0013900200CAB009301900AAB1BAA87
:105700001AF02CFB054600289AD1B3E61B680393D8
:105710004A465146184614F0F3F960B9039B1846FF
:10572000FAF7EEFC584538BF58461FFA80FB002EAA
:1057300008BFB8460136013790E72021204600F027
:1057400095FE97E6012120461AF0F4FB92E600BF91
:10575000F87F0200F97F020004907FF68BAE0A9A70
:1057600030AB03EB8202C14652F8543C0393184617
:105770001AF09BF8049B0590A7F840300496A268A5
:1057800049461832284600F02BFC039BD0F800A0B5
:1057900009F101094BB1BAF1000F06D0059A19467B
:1057A000504614F0ADF90028E9D1A168BAF1000F14
:1057B0004ED1A1F840A0049B013B0493DFD1606966
:1057C000FFF762FC204600F089FE0A9B30AA02EB3C
:1057D000830308F1010A53F8540C1AF066F84146A5
:1057E00011AA8146284600F0FBFB0746A0683968ED
:1057F000FF2200F5AB7014F0C5F93B6803934FF638
:10580000FF77B84616AA514628460AF1010B00F068
:10581000E7FB002852D0A168036801F2551100226D
:1058200011F801EF985C704503D110B10132424587
:10583000F6D1B9F1000F01D04A4507DBBA4206F1B3
:10584000FF36A8BF3A46012E97B237D0DA46D9E7DD
:10585000AE4806911AF029F8069907914A8F00EB95
:105860000B07BFB2121A504692FBF7F292B20692A1
:105870001AF01BF80799069A3F1AB1F8400000F198
:10588000010CA1F840C0B0FBF2F102FB110080B2A4
:10589000BFB260B99D4B9E4ACDF800A006212046BC
:1058A0001AF02AFC3946204600F070FC83E7994A3A
:1058B0005346062120461AF01FFCF3E7002F3FF461
:1058C000D9AD0399A7EB090292B2494420461AF0D8
:1058D0005AFCCFE5D0F874329E077FF5CBAD01219D
:1058E0001AF024F820461AF06FFCC3E5D0F87422B1
:1058F00092077FF5BFAD013B162B3FF6BBAD01A272
:1059000052F823F0D95A000061590000695900008B
:105910005D550000CD5A0000875900007554000005
:105920007554000075540000755400008F59000034
:105930009759000075540000C159000075540000CB
:10594000CB590000755400007554000075540000D8
:1059500075540000CF59000075540000F95900003B
:1059600020461AF020FB85E520461AF013FB20465E
:105970001AF095FA10B96069FFF786FBA06801215B
:1059800019F0D4FF0CE620461AF016FB72E520460B
:105990001AF01DFB6EE5D0F874329F0603D55E4900
:1059A000606919F075FFA368D3F874329E0603D5B9
:1059B0005A49606919F06CFF204600F08FFD59E5E7
:1059C00000212046FFF766FB54E50121F9E7204658
:1059D0001AF0D9FA204619F01AFF0121A06819F02F
:1059E000A5FFA368D3F874329D067FF543AD4C49FB
:1059F000606919F04DFF3DE5204600F095FCA06878
:105A0000012119F093FF35E55B2B02D10223537579
:105A100030E5D2F87422900706D5622B08D14FF0FA
:105A2000FF31204600F0C8FBA36800225A7521E52B
:105A3000662BF9D10121F4E700215175A268D2F853
:105A4000741289077FF516AD313B1B2B3FF612AD63
:105A500001A151F823F000BFD55A0000E15A00001F
:105A6000F55A0000C95A0000755400007554000032
:105A70007554000075540000755400007554000002
:105A800075540000755400007554000075540000F2
:105A90007554000075540000CB590000C159000036
:105AA000875900006159000075540000CD5A00006C
:105AB00075540000D95A0000755400007554000058
:105AC00075540000E55A00000323537520461AF070
:105AD00061FACFE40323537520461AF054FAC9E45F
